:08122800E4900000F01210F147
:10123000900001746FF0A374FFF090000174FFF54B
:10124000F01205E245F0606E20A4EF7F147E0012DC
:05125000190520A4E5D2
:101255009000031206230000000020A42190000343
:10126500E0FCA3E0FDA3E0FEA3E02401FFE43EFED5
:10127500E43DFDE43CFC90000312061780DC7FA0F2
:101285007E867D017C00900003E0F8A3E0F9A3E0F1
:10129500FAA3E0FBD3120606400A7F0112194E128B
:0F12A500198880FE7F0112194E900000E004F0BE
:1012B4008084900000E014601714601C14601D14F6
:1012C400602214602524056003021230C2008002EB
:1012D400D200120B1D021230C2008002D200121280
:1012E400F6021230121506021230E4900000F002E9
:0212F4001230B6
:08186200EF7005F5EAF5FA222A
:10186A00AC07E412022E7B337A33792378401201D3
:10187A001EA804A905AA06AB07E4FFFE7D7F7C43E8
:0F188A00120029120262900007EFF0F5EA8FFAC0
:01189900222C
:08189A00EF7005F5EBF5FB22F0
:1018A200AC07E412022E7B337A337923784012019B
:1018B2001EA804A905AA06AB07E4FFFE7D7F7C43B0
:0F18C200120029120262900007EFF0F5EB8FFB86
:0118D10022F4
:10000300E4F5D8F5E9F5F975D90275EAFF75FAFF54
:0F00130075DA4275EBFF75FBFF75DB42D2DE221B
:030023000217724F
:10177200C0E0C0F0C083C082C0D075D000C000C03D
:1017820001C002C003C004C005C006C007309807EC
:10179200C298AF99121A98D007D006D005D004D0BB
:1017A20003D002D001D000D0D0D082D083D0F0D0EC
:0217B200E03223
:101A0B00D2AFD2AC53877F759850759CFD438E0433
:071A1B00438E01438E1022EF
:101A6300C2ACC2998F993099FDC299D2ACAF992279
:10194E007D287C05AE808F80C2A1D2A2ED1DAA0497
:0C195E0070011C4A70F6C2A2AF068F8018
:01196A00225A
:10196B007D287C05AE808F80D2A1D2A2ED1DAA046A
:0C197B0070011C4A70F6C2A2AF068F80FB
:01198700223D
:1019A4007B057F3812194EDBF97F0612194E7F0C26
:0A19B40012194E7F0112194EC2A253
:0119BE002206
:1018D20090000FEBF0A3EAF0A3E9F090000FE0FB19
:1018E200A3E0FAA3E0F9120535601790000FA3E414
:1018F20075F0011205E2A9F0FA120535FF12196B13
:0319020080D92267
:1017EF00E4FDFCEF24FE6014146015146016146001
:1017FF00171460182405701DE4FF80127F01800EFE
:10180F007F02800A7F0580067F0680027F071219FC
:09181F002DAC06AD07AE04AF05C7
:01182800229D
:10192D00EF44E8F5BC00000000E5BC30E4FB53BC1F
:10193D00EFAFBDEF75F004A4FFAEF0ADBEEF4DFF00
:01194D002277
:0A1A8E00759DE7E4F5BD75BC8022EC
:051A9F004200370000C9
:0C171300D2A07B017A007D017C007F01E8
:10171F00900011EFF0A3ECF0A3EDF0A3EAF0A3EB30
:01172F00F0C9
:10173000E4F9900011E0FFE9C39F5035E4FFEFFDAD
:10174000D3900013E09D7480F8900012E0648098BC
:10175000401CE4FEEEFDD3900015E09D7480F890EF
:101760000014E064809840030E80E90F80D0098067
:01177000C1B7
:011771002255
:101A2200121713C2A07B3F7D017F0612171FD2A09F
:071A32007D017F0502171F73
:1017B400E490000FF0A3F090000F7408F0C2A000B2
:1017C400900010E0C313F012171330A0079000101C
:1017D400E04480F07B0812171790000FE014F0E04B
:0A17E400D3940050D8900010E0FFED
:0117EE0022D8
:0518290090000FEFF03C
:10182E00E4A3F07408F0C2A00090000FE01392A0A1
:10183E007B0F121717D2A090000FE0C313F07B019D
:10184E007D017F0112171F900010E014F0E0D39479
:03185E000050D364
:011861002264
:10145A00121A227FCC1218297F44121829121A2232
:10146A007FCC1218297FBE1218291217B490000DCA
:10147A00EFF01217B490000EEFF0900037E4F0A3EB
:10148A00EFF0E07F00FE900037F0A3EFF090000D40
:10149A00E0FDEDFF900037EEF0A3EFF0AC06E412AA
:1014AA000229E4FBFA7980783D12011E90000912A4
:1014BA000617E4FFFE7D207C41900009E0F8A3E0D6
:1014CA00F9A3E0FAA3E0FB12011EE4FBFAF9783F64
:1014DA0012002D120262900037EEF0A3EFF0C394CF
:1014EA00F4EE9401400302145A900037E0FEA3E0A0
:0B14FA00FF9400EE9400500302145A0F
:0115050022C3
:1013AD007EFF300050EF14B40800400302144D903E
:1013BD0013CA75F003A4C58325F0C583730213E228
:1013CD000213E60213EA0213EE0213F20213F602FF
:1013DD0013FA0213FED2808067D2818063D282809D
:1013ED005FD283805BD2848057D2858053D2868032
:1013FD004FD287804BEF14B40800504490141775EA
:10140D00F003A4C58325F0C5837302142F02143392
:10141D0002143702143B02143F0214430214470214
:10142D00144BC280801AC2818016C2828012C28380
:10143D00800EC284800AC2858006C2868002C28761
:0C144D007EFFD2A3AF061EEF70FAC2A310
:011459002270
:1016A20041313A00202041323A0041333A002020B1
:1016B20041343A0041353A00202041363A00443163
:1016C2003A002044323A002044333A0044343A008B
:1016D2002044353A002044363A0044373A00204448
:1016E200383A0054656D70657261747572653A00BE
:1016F20030313233343536373839003031323334E1
:1017020035363738390030313233343536373839B7
:0117120000D6
:0A190500EF1FAC0670011E4C601DC0
:10190F00009000077403F0A374BEF0900008E01479
:0B191F00F070F8900007E014F070F08A
:03192A0080D9223F
:0E1A7300EF1FAC0670011E4C60030080F322D2
:060B1D00300003020DD7B9
:100B23007F011217EF900007EEF0A3EFF07F0212A0
:100B330017EF900009EEF0A3EFF07F031217EF9089
:100B4300000BEEF0A3EFF07F041217EF90000DEE11
:100B5300F0A3EFF07F8012194E7BFF7A1679A21271
:100B630018D2900007E0FEA3E0FF7C037DE81205A6
:100B73008D74F22FF58274163EF583E493FF1219F8
:100B83006B900007E0FEA3E0FF7C037DE812058D78
:100B93007E007F64CFCDCFCECCCE12058D74F22FE5
:100BA300F58274163EF583E493FF12196B900007E8
:100BB300E0FEA3E0FF7C007D6412058D7E007F0ACA
:100BC300CFCDCFCECCCE12058D74F22FF582741615
:100BD3003EF583E493FF12196B900007E0FEA3E058
:100BE300FF7C007D0A12058D74F22DF58274163C8C
:100BF300F583E493FF12196B7BFF7A1679A612181B
:100C0300D2900009E0FEA3E0FF7C037DE812058D8E
:100C130074F22FF58274163EF583E493FF12196B79
:100C2300900009E0FEA3E0FF7C037DE812058D7EC2
:100C3300007F64CFCDCFCECCCE12058D74F22FF5CD
:100C43008274163EF583E493FF12196B900009E05A
:100C5300FEA3E0FF7C007D6412058D7E007F0ACF3A
:100C6300CDCFCECCCE12058D74F22FF58274163E05
:100C7300F583E493FF12196B900009E0FEA3E0FFF4
:100C83007C007D0A12058D74F22DF58274163CF5F5
:100C930083E493FF12196B7FC012194E7BFF7A1600
:100CA30079AC1218D290000BE0FEA3E0FF7C037D29
:100CB300E812058D74F22FF58274163EF583E493E2
:100CC300FF12196B90000BE0FEA3E0FF7C037DE8AD
:100CD30012058D7E007F64CFCDCFCECCCE12058D95
:100CE30074F22FF58274163EF583E493FF12196BA9
:100CF30090000BE0FEA3E0FF7C007D6412058D7E77
:100D0300007F0ACFCDCFCECCCE12058D74F22FF556
:100D13008274163EF583E493FF12196B90000BE087
:100D2300FEA3E0FF7C007D0A12058D74F22DF5828F
:100D330074163CF583E493FF12196B7BFF7A1679E3
:100D4300B01218D290000DE0FEA3E0FF7C037DE813
:100D530012058D74F22FF58274163EF583E493FF2A
:100D630012196B90000DE0FEA3E0FF7C037DE812F7
:100D7300058D7E007F64CFCDCFCECCCE12058D7492
:100D8300F22FF58274163EF583E493FF12196B90EC
:100D9300000DE0FEA3E0FF7C007D6412058D7E0064
:100DA3007F0ACFCDCFCECCCE12058D74F22FF58234
:100DB30074163EF583E493FF12196B90000DE0FE69
:100DC300A3E0FF7C007D0A12058D74F22DF5827479
:010DD3001609
:030DD400020F2BE0
:100DD7007F051217EF900007EEF0A3EFF07F0612E2
:100DE70017EF900009EEF0A3EFF07F8012194E7B0A
:100DF700FF7A1679B61218D2900007E0FEA3E0FF3B
:100E07007C037DE812058D74FD2FF58274163EF57F
:100E170083E493FF12196B900007E0FEA3E0FF7CC9
:100E2700037DE812058D7E007F64CFCDCFCECCCE7B
:100E370012058D74FD2FF58274163EF583E493FF3A
:100E470012196B900007E0FEA3E0FF7C007D64129F
:100E5700058D7E007F0ACFCDCFCECCCE12058D7407
:100E6700FD2FF58274163EF583E493FF12196B90FC
:100E77000007E0FEA3E0FF7C007D0A12058D74FDEC
:100E87002DF58274163CF583E493FF12196B7BFFF3
:100E97007A1679BA1218D2900009E0FEA3E0FF7C17
:100EA700037DE812058D74FD2FF58274163EF583D8
:100EB700E493FF12196B900009E0FEA3E0FF7C03A7
:100EC7007DE812058D7E007F64CFCDCFCECCCE12CC
:100ED700058D74FD2FF58274163EF583E493FF129A
:100EE700196B900009E0FEA3E0FF7C007D6412050A
:100EF7008D7E007F0ACFCDCFCECCCE12058D74FD6F
:100F07002FF58274163EF583E493FF12196B900058
:100F170009E0FEA3E0FF7C007D0A12058D74FD2D1C
:0D0F2700F58274163CF583E493FF12196BFC
:010F3400229A
:1012F60030000302137D7F8012194E7BFF7A167928
:10130600C01218D230A6047F3180027F3012196BCA
:101316007BFF7A1679C41218D230A7047F31800277
:101326007F3012196B7BFF7A1679C91218D230B248
:10133600047F3180027F3012196B7FC012194E7BF9
:10134600FF7A1679CE1218D230B3047F3180027F2D
:101356003012196B7BFF7A1679D21218D230B40488
:101366007F3180027F3012196B7BFF7A1679D71294
:1013760018D230B52C80267F8012194E7BFF7A1644
:1013860079DC1218D230B6047F3180027F30121910
:101396006B7BFF7A1679E01218D230B7047F318062
:0713A600027F3012196B22D7
:1015060012145A900007EEF0A3EFF07F8012194EE6
:101516007BFF7A1679E51218D27FC012194E900019
:1015260007E0FEA3E0FF7C007D6412058D74082FA2
:10153600F58274173EF583E493FF12196B9000074A
:10154600E0FEA3E0FF7C007D6412058D7E007F0A2D
:10155600CFCDCFCECCCE12058D74082FF582741761
:101566003EF583E493FF12196B7F2E12196B9000E0
:1015760007E0FEA3E0FF7C007D0A12058D74082DAE
:10158600F58274173CF583E493FF12196B7FDF1223
:07159600196B7F4302196B82
:1019D900557365722050726F6772616D6500486555
:0919E9006C6C6F203830353100C0
:101988007F8012194E7BFF7A1979D91218D27FC03D
:0C19980012194E7BFF7A1979E70218D271
:100F3500E4FFFE30000B2001082002052003027F9C
:100F45000120000B3001082002052003027F02303A
:100F5500000B3001082002052003027F0320000B4F
:100F65002001083002052003027F0430000B200118
:100F7500083002052003027F0520000B30010830F0
:100F850002052003027F0630000B30010830020500
:100F95002003027F0720000B2001082002053003F3
:100FA500027F0830000B2001082002053003027F74
:100FB5000920000B3001082002053003027F0A30AA
:100FC500000B3001082002053003027F0B20000BC7
:100FD5002001083002053003027F0C30000B200190
:100FE500083002053003027F0D20000B3001083068
:100FF50002053003027F0E30000B30010830020578
:101005003003027F0F20040B20050820060520076A
:1010150002E4FE30040B2005082006052007027EA9
:101025000120040B3005082006052007027E02304A
:10103500040B3005082006052007027E0320040B5B
:101045002005083006052007027E0430040B200524
:10105500083006052007027E0520040B3005083000
:1010650006052007027E0630040B3005083006050C
:101075002007027E0720040B2005082006053007FF
:10108500027E0830040B2005082006053007027E85
:101095000920040B3005082006053007027E0A30BA
:1010A500040B3005082006053007027E0B20040BD3
:1010B5002005083006053007027E0C30040B20059C
:1010C500083006053007027E0D20040B3005083078
:1010D50006053007027E0E30040B30050830060584
:0B10E5003007027E0FEEC454F04FFFF6
:0110F00022DD
:101A4F00496E6974696E672E2E2E2E2E2E004865F4
:041A5F006C6C6F003C
:1010F100D2A6D2A7D2B2D2B3D2B4D2B5D2B6D2B7D7
:10110100D2C47F647E00121A737D51E4FF12162946
:10111100E4FF121AA5E4FDFF121629E4F5B375B434
:101121007275BB70C200C201C202C203C204C20511
:10113100C206C207120F358F93C200C201C202C29A
:1011410003C204C205C206C207120F358F94D20032
:10115100D201D202C203C204D205D206D207120FB3
:10116100358F91C200C201C202C203C204C205C2CC
:1011710006C207120F358F92C200C201C202C2031A
:10118100C204C205C206C207120F358F95C200C242
:1011910001C202C203C204C205C206C207120F3550
:1011A1008F96C200C201C202C203C204C205C206B6
:1011B100C207120F358FB1C200C201C202C203C2FF
:1011C10004C205C206C207120F358FB2121A0B7B79
:1011D100FF7A1A794F1207051219A4121A8E1200FA
:1011E100037F321218627F5A12189AC2007F0112CD
:1011F10013AD7580FFD2A37F017E00121905C2A332
:101201007F6112196B7BFF7A1A795D1218D27F0107
:1012110012194E7F011217EF12145AC2C47F2C7E8D
:0712210001121905D2C422DD
:071A9800EFB45E02B2A522CB
:061AA5007E001219F2227E
:08162900900007EFF0A3EDF0C3
:10163100E4900031F0900031E0FFC39428501C7E0B
:10164100001219F2900031E02409F582E43400F52A
:1016510083EFF0900031E004F080DA900007E0FFC2
:10166100C39428503BA3E0FE74092FF582E43400B3
:10167100F583EEF0E4FFFE121A39E4900031F090A8
:101681000031E0FF7E002409F582E43400F583E0B7
:10169100FD1219BF900031E004F0E0C3942840DF4F
:0116A1002226
:0D1A8100E4F5C7F5C5F5C675C380F5C422B0
:1019F20075C78275C5018FC4EEF5C375C65A75C623
:081A0200A50000AFC2121A8119
:011A0A0022B9
:1019BF0075C78275C5028FC4EEF5C3AF058FC275AB
:0A19CF00C65A75C6A50000021A8171
:101A390075C78275C5038FC4EEF5C375C65A75C6D9
:061A4900A50000021A8155
:100026000202CEE86480F8E933E83360110460F038
:10003600ED33EC337009E8FCE9FDEAFEEBFF220440
:1000460060DED3EB9FEA9EE99DE8C2E78CF0C2F73B
:1000560095F0400CE8CCF8E9CDF9EACEFAEBCFFB07
:1000660012029985D0F05804700320D5B3E80470C5
:10007600075002B2D50202D892D5EC0460F7E4CC60
:10008600C0E0C398F8603B94186008400DD0E0FBD0
:100096000202B0E4FBFAC9FC8028E830E406E4C9B1
:1000A600FBE4CAFCE830E305E4C9CACBFCE8540724
:1000B6006010F8C3E913F9EA13FAEB13FBEC13FC2F
:1000C600D8F130F52FC3E49CFCEF9BFFEE9AFEEDD2
:1000D60099FDD0E0FBEF4E4D4C701222DB0302027D
:1000E600D5EC2CFCEF33FFEE33FEED33FDED30E7C0
:1000F600EB0202B0EF2BFFEE3AFEED39FDD0E0FB4E
:1001060050130BBB00030202D8ED13FDEE13FEEFF6
:0801160013FFEC13FC0202B020
:10011E00EC4D6011E8497017ED33EC3304600DE4DB
:10012E00FCFFFEFD22E933E8330470F80202CE1222
:10013E00029958046009E4CC248150062850090223
:10014E0002D82840030202D5C0E0EB4A7044B980C1
:10015E0006D0E0FB0202C4EF4E701CBD8008EBFF20
:10016E00EAFEE9FD80EBE98DF0A4FEE5F002020760
:10017E00E9CDF9EAFEEBFFEF89F0A4FCE5F0CE89BC
:10018E00F0A42EFFE435F0CD89F0A42DFEE435F079
:10019E008067EF4E7005BD80D780C3EF8BF0A4ACA7
:1001AE00F0EE8BF0A42CFCE435F0F8EF8AF0A42CE2
:1001BE00E5F038FCE433CB8DF0A42CFCE5F03BF8F5
:1001CE00EE8AF0A42CFCE5F038F8E433CF89F0A4E5
:1001DE002CFCE5F038CF3400CE89F0A42FFFE5F0EB
:1001EE003EFEE433C98DF0A42EFEE5F039CD8AF043
:1001FE00A42FFFE5F03EFEE43DFD33D0E0FB5007BB
:10020E000BBB000F0202D8EC2CFCEF33FFEE33FEDB
:06021E00ED33FD0202B009
:1002240075F020800E75F010800575F0087D007E55
:10023400007F003392D530D5031205F8EC3340101B
:10024400EF33FFEE33FEED33FDEC33FCD5F0ED225E
:0E025400E5F0247EA2D513CC92E7CDCEFF229A
:10026200EDD2E7CD33EC3392D524814006E4FFFE94
:10027200FDFC22FCE4CFCECDCC24E0501174FF80F3
:10028200EDC3CC13CCCD13CDCE13CECF13CF047090
:07029200F030D5DE0205F893
:10069A00E508240AF582E43400F583E0050822908F
:1006AA00000730070390000AE475F00112065402AD
:1006BA0005352000E97F2ED2008018EF540F2490D0
:1006CA00D43440D4FF30040BEF24BFB41A005003D3
:1006DA002461FFE50960021509050CE50C700205A5
:1006EA000B30070E900007E475F001120654EF0272
:1006FA00057B021A637403D2078003E4C207F50874
:10070A0090000712066BE4F509F50BF50CE5096094
:10071A00077F201206DD80F5750AFFC201C200C2FA
:10072A0002C203C205C206C2081206A9FF700D3032
:10073A0007057F001206EEAF0CAE0B22B4255FC28E
:10074A00D5C2041206A9FF24D0B40A00501A75F0C3
:10075A000A780930D50508B6FF0106C6A426F62090
:10076A00D5047002D20380D924CFB41A00EF500402
:10077A00C2E5D2040209E0D20180C6D20080C0D20A
:10078A000280BCD2D580BAD20580B47F201206DDA1
:10079A002002077401B5090040F112069AFF1206F9
:1007AA00DD020717D208D206809512069AFB1206B6
:1007BA009AFA12069AF94A4B700679DE7A0A7BFF90
:1007CA0020022EE509602A7E008E827583001205BA
:1007DA004E60060EEE650A70F0C2D5EBC0E0EAC0C4
:1007EA00E0E9C0E0EE120A41D0E0F9D0E0FAD0E048
:1007FA00FB120535FF60AAEBC0E0EAC0E0E9C0E001
:10080A001206DDD0E02401F9D0E03400FAD0E0FB92
:10081A00E50A0460DCD50AD98087D20280A2120ACE
:10082A002360F7E50A7001041202E3A90A600DE5E4
:10083A000A600914F50A120ACBEF60F3EA30E702FC
:10084A00F404C3995079EAF4250A0430E701E40470
:10085A00F50A800D120A2360C1EA050A250A120266
:10086A00E3EA900036F030E701E4250A04D50A04E9
:10087A0020050114120A41E4C0E0120ACB900036A6
:10088A00E0601320E70714F01206C5802204F0D0B6
:10089A00E014C0E07F001206C5E50A60071206BC34
:1008AA00150A800B3005031206BCD0E0020717D0E8
:1008BA00E00480C4120A23609EE50A041202E3904F
:1008CA000036EAF0E50A2005026001042404120A4F
:0108DA0041DC
:1008DB0074FF04C0E0120ACB1206C5E50A2005021C
:1008EB0060031206BCD0E0B50AE87F451206CF9034
:1008FB000036E07F2B30E7047F2DF404C0E01206B6
:10090B00DDD0E075F00A84C0F01206C6D0E0120606
:10091B00C6020717791080027908C206C208800840
:10092B00D2D5790A8004790AC2D5E50A047002F59A
:10093B000AE4FAFDFEFF12069AFC7B082001131253
:10094B00069AFD7B1030000A12069AFE12069AFFD9
:10095B007B20EC3382D592D55013C3E43000069F35
:10096B00FFE49EFEE42001039DFDE49CFCE4CBF838
:10097B00C201EC700CCFCECDCCE824F8F870F3802C
:10098B0017C3EF33FFEE33FEED33FDEC33FCEB33EC
:10099B00FB994002FB0FD8E9EB300105F8D0E0C41E
:1009AB0048B201C0E00AEC4D4E4F78207B0070C27C
:1009BB00EAB50A0040BCC0E0120A43D0F0D0E020F8
:1009CB000104C4C0E0C4B201C0F01206C6D0F0D519
:1009DB00F0EB02071712067407B453091F5807856B
:1009EB004C07814209234F092B44092B49079A4392
:1009FB00093155085E4608BE450828470AFE5007D0
:100A0B00892D078D2E07B02B07912307AE200AE700
:100A1B002A074948000007A8E50AB4FF03750A0630
:100A2B0012069AFC12069AFD12069AFE12069AFFFD
:100A3B0090002F020320790AA2D520031430050958
:100A4B00B910020404B9080104A2D5200602500112
:100A5B00042002689202B509005034C0E07F2030B8
:100A6B0003197F30A20272067205500F120A9AC246
:100A7B0002C206C205C2087F30800F300503E9C0F1
:100A8B00E01206DD300503D0E0F9D0E0B509CC303B
:100A9B0005177F30B9100C1206DD7F583004077F25
:100AAB00788003B908031206DD3002057F2D02069C
:100ABB00DD7F202008F87F2B2006F322920280CFC7
:100ACB007F00B40700500B242FF582E43400F5832C
:100ADB00E0FF22286E756C6C2900D20112069A3049
:100AEB0001F8C201780930D50108F60207492D50EB
:100AFB0043495812069A2403B405004001E4900AB6
:100B0B00F9931206CE743A1206CED203750904027B
:020B1B00091FB0
:10029900E9D2E7C933E833F892D5EDD2E7CD33ECAB
:0702A90033FC5002B2D52224
:1002B000EC30E7100FBF000C0EBE00080DBD0004AF
:1002C0000BEB6014A2D5EB13FCED92E7FD2274FF5B
:1002D000FCFDFEFF22E480F8A2D574FF13FC7D80B4
:0302E000E480EFC8
:1002E300F920E73624F950037907E4F42402FBE507
:1002F30082158270021583DBF6E024FB501BE96054
:1003030014E4F0E582158270021583E004F0B40A68
:0D03130008E4F0D9EE7401F00A22C2D522F0
:10032000ED33EC3392D5FA602AB4FF33EDC2E77BAC
:10033000FF60067A037945E4227A03794E20D504DA
:100340007A037949224E614E002B494E46002D49D1
:100350004E4600E47A08F0A3DAFC7B00740722C062
:1003600083C082ECC0E0EDC0E0EEC0E0EFC0E0EAA8
:1003700075F010A4CAABF075F04DA42BFBE435F07A
:10038000FCEA2410FAEB34C5FBEC34D9FCEDC2E7EF
:10039000FF75F056A4F42411C5F0F434C58FF0A411
:1003A0002AE5F03BE43CF020E7141204F5D0E0FF2E
:1003B000D0E0FED0E0FDD0E0FC1204288014F4046C
:1003C0001204F5D0E0FFD0E0FED0E0FDD0E0FC125A
:1003D000011ED082D083E0FAEDD2E7CD33EC332496
:1003E00082FBE4C3CF33CFCE33CECD33CD33DBF37B
:1003F0007B0775F00A846004F0A31B0AE5F0F0A304
:100400008FF0740AA4FFACF08EF0740AA42CFEAC3A
:10041000F050010C8DF0740AA42CFDE435F0F0A32B
:05042000DBDE74072281
:100425000202D8EC5D046005E8590470030202CEAF
:10043500120299580460F6EC4860F2EC7004FDFE77
:10044500FF22C860DB2481C85009C39860025006AA
:100455000202D59850CAF582E9294B4A7005AB824C
:100465000202C475F0007C1A7880C3EF9BEE9AED0A
:1004750099400DC3EF9BFFEE9AFEED99FDE842F022
:10048500DC23ACF0D0E0FFD0E0FED0E0FDAB822075
:10049500E7101BEB60BAEC2CFCEF33FFEE33FEEDFF
:1004A50033FD0202B0E803F830E705C0F075F0004F
:1004B500EF2FFFEE33FEED33FD40B830E7C280AAE3
:1004C5003F8000004120000042C80000447A00003F
:1004D500461C400047C35000497424004B189680C1
:1004E5004CBEBC205A0E1BCA6753C21C749DC5AEB8
:1004F500FB60065407601C2323120523EB54386068
:100505000912050F12051E12011EECF8EDF9EEFA9F
:10051500EFCB22EB12051E80F1543803241C900406
:10052500C5FE93FC0EEE93FD0EEE930ECE93FF22C9
:0300000002159D49
:0C159D00787FE4F6D8FD7581210215E48A
:10053500BB010689828A83E0225002E722BBFE02C4
:09054500E32289828A83E49322F7
:10054E00BB010CE58229F582E5833AF583E0225062
:10055E0006E92582F8E622BBFE06E92582F8E222AC
:0D056E00E58229F582E5833AF583E49322C6
:10057B00BB010689828A83F0225002F722BBFE015F
:02058B00F32259
:10058D00BC000BBE0029EF8DF084FFADF022E4CC52
:10059D00F875F008EF2FFFEE33FEEC33FCEE9DEC1B
:1005AD00984005FCEE9DFE0FD5F0E9E4CEFD22ED61
:1005BD00F8F5F0EE8420D21CFEADF075F008EF2FAB
:1005CD00FFED33FD4007985006D5F0F222C398FD9C
:0505DD000FD5F0EA2239
:1005E200A3F8E0C5F025F0F0E582158270021583CC
:0605F200E0C838F0E82229
:0E05F800C3E49FFFE49EFEE49DFDE49CFC2214
:10060600EB9FF5F0EA9E42F0E99D42F0E89C45F04A
:0106160022C1
:0C061700ECF0A3EDF0A3EEF0A3EFF02256
:10062300A8828583F0D083D08212063A12063A124A
:10063300063A12063AE473E493A3C583C5F0C5836F
:10064300C8C582C8F0A3C583C5F0C583C8C582C821
:010653002284
:10065400F8E0FBA3A3E0F925F0F0E582158270022F
:070664001583E0FA38F022D3
:09066B00EBF0A3EAF0A3E9F02290
:10067400D083D082F8E4937012740193700DA3A315
:1006840093F8740193F5828883E473740293686029
:06069400EFA3A3A380DF29
:1015A900021228E493A3F8E493A34003F68001F21E
:1015B90008DFF48029E493A3F85407240CC8C33343
:1015C900C4540F4420C8834004F456800146F6DF12
:1015D900E4800B0102040810204080901A9FE47EE9
:1015E900019360BCA3FF543F30E509541FFEE49307
:1015F900A360010ECF54C025E060A840B8E493A3CE
:10160900FAE493A3F8E493A3C8C582C8CAC583CAF8
:10161900F0A3C8C582C8CAC583CADFE9DEE780BEB0
:011AA4000041
:00000001FF
